:100000000C9459000C9481000C9481000C94810094
:100010000C9481000C9481000C9481000C94940247
:100020000C9481000C9481000C9481000C9481004C
:100030000C9481000C9481000C9481000C9481003C
:100040000C94BB020C9481000C94F9040C942B05C5
:100050000C9481000C9481000C9481000C9481001C
:100060000C9481000C94810001020408102040804F
:1000700001020408102001020408102004040404F2
:100080000404040402020202020203030303030342
:1000900000000000230026002900000000002500C9
:1000A00028002B0000000000240027002A00260161
:1000B0005B0511241FBECFEFD8E0DEBFCDBF11E03E
:1000C000A0E0B1E0ECE0FDE002C005900D92A832A6
:1000D000B107D9F721E0A8E2B1E001C01D92A93E25
:1000E000B207E1F710E0C2EBD0E004C02297FE01B6
:1000F0000E948006CE3AD107C9F70E944C060C94A4
:1001000084060C9400001F93CF93DF9380913A01F3
:1001100012E1189FC0011124885D9E4F0E940002C9
:100120008823D9F080913A0190E0EC01CC0FDD1FDB
:10013000C55CDE4F189FF001199FF00D1124E85D9A
:10014000FE4F608171818281938129E330E040E03C
:1001500050E00E945C0639832883DF91CF911F9184
:10016000089526E040E052EC61E070E08CE491E01C
:100170000E9497040E940503655B7F4F8F4F9F4F3E
:1001800060933D0170933E0180933F019093400145
:1001900008954AE050E060E08CE491E00E943E0661
:1001A00060E071E08CE491E00E94DC0560913B012D
:1001B00070913C014AE050E08CE491E00E944506D9
:1001C00062E071E08CE491E00E94DC058CE491E057
:1001D0000C94DE050F931F930E94050300913D01CF
:1001E00010913E0120913F0130914001601771074D
:1001F0008207930718F1D901C8018196A11DB11D8D
:1002000080933D0190933E01A0933F01B093400144
:1002100080913A01811102C00E94C9000E94FA0136
:1002200010923A0110923C0110923B0140E050E0E4
:1002300063E870E088E291E00E94750264E670E095
:1002400080E090E01F910F910C94340328EC30E093
:1002500043E066E088E291E00C94AD010F931F93B8
:10026000CF93DF93EC01EA85FB8580819C81892B0C
:100270008083EE81FF8190818C81809589238083AA
:1002800084E090E00E946E03EE81FF8180819C817A
:10029000892B80838AE090E00E946E03EE81FF81CB
:1002A00090818C81809589238083EA85FB8590816C
:1002B0008C81809589238083E885F98580819D8163
:1002C000892311F080E032C00E9411034C855D85C6
:1002D0008A0120E030E00855194E2F4F3F4F060F9E
:1002E000171F281F391F0E871F87288B398BE8851A
:1002F000F98580819D81892361F40E9411030E8517
:100300001F8528893989061717072807390778F7BD
:10031000D9CF0E9411032C853D85620F731F811D6B
:10032000911D6E877F87888B998B81E0DF91CF91BC
:100330001F910F9108956F5F7F4F49E3469F900192
:10034000479F300D11242E384FE6340710F02DE86A
:100350003FE6FC013587248708950F931F93CF93C1
:10036000DF93DC01062F10E0F801E859FF4FE4911C
:100370001496EC931497842F90E0FC01E859FF4FFA
:10038000E4911596EC93159704581F4FF801C4910A
:10039000D0E0CC0FDD1FC656DF4FFE0145915491D2
:1003A00017965C934E931697FC01E458FF4F849187
:1003B00090E0880F991F80579F4FFC014591549101
:1003C00019965C934E931897F8010491E02FF0E092
:1003D000EE0FFF1FEC55FF4F859194911B969C9358
:1003E0008E931A97B901CD01DF91CF911F910F9193
:1003F0000C949B01E0E7F0E080818D7F808308957D
:10040000CF92DF92EF92FF920F931F93CF93DF93E0
:10041000EC010E9411030E851F8528893989061772
:1004200017072807390718F40E94FA0125C0E88544
:10043000F98580819D818923F9F40E94FA010E9447
:1004400011034C855D858A0120E030E0CE84DF8495
:10045000E888F9880C191D092E093F090D5011096A
:1004600021093109060F171F281F391F0883198317
:100470002A833B8381E001C080E0DF91CF911F910F
:100480000F91FF90EF90DF90CF9008950E94FA01B6
:10049000E6EBF0E080818F7D808382E08093B00086
:1004A00084E08093B1001092B2000895CF93DF935F
:1004B000EC0170934201609341010E944602CE011B
:1004C000969587959695879501978F3F910519F099
:1004D00010F08FEF90E08093B30080917000826005
:1004E00080937000DF91CF9108950F931F93CF9366
:1004F000DF93EC018B014115510519F0BA010E94FF
:100500009B01CE010E942E01882349F0B80188E1A9
:1005100090E0DF91CF911F910F910C945602DF91E3
:10052000CF911F910F9108951F920F920FB60F92C6
:1005300011242F933F934F935F936F937F938F93E8
:100540009F93AF93BF93EF93FF93E0914101F0919D
:1005500042010995FF91EF91BF91AF919F918F91CA
:100560007F916F915F914F913F912F910F900FBEAF
:100570000F901F9018951F920F920FB60F92112493
:100580002F933F938F939F93AF93BF938091440199
:1005900090914501A0914601B091470130914301EE
:1005A00023E0230F2D3720F40196A11DB11D05C0B6
:1005B00026E8230F0296A11DB11D209343018093CD
:1005C000440190934501A0934601B0934701809167
:1005D000480190914901A0914A01B0914B010196C7
:1005E000A11DB11D8093480190934901A0934A0138
:1005F000B0934B01BF91AF919F918F913F912F91FC
:100600000F900FBE0F901F9018952FB7F894609120
:1006100044017091450180914601909147012FBF9F
:1006200008953FB7F8948091480190914901A091B5
:100630004A01B0914B0126B5A89B05C02F3F19F088
:100640000196A11DB11D3FBF6627782F892F9A2FD4
:10065000620F711D811D911D42E0660F771F881F7B
:10066000991F4A95D1F708958F929F92AF92BF92AA
:10067000CF92DF92EF92FF926B017C010E941103F7
:100680004B015C01C114D104E104F104F1F00E94BA
:100690005B060E941103681979098A099B09683E63
:1006A00073408105910570F321E0C21AD108E10879
:1006B000F10888EE880E83E0981EA11CB11CC114BD
:1006C000D104E104F10429F7DDCFFF90EF90DF9032
:1006D000CF90BF90AF909F908F90089582309105FA
:1006E00038F0880F991F880F991F05970197F1F728
:1006F0000895789484B5826084BD84B5816084BD9A
:1007000085B5826085BD85B5816085BDEEE6F0E08A
:10071000808181608083E1E8F0E0108280818260E6
:100720008083808181608083E0E8F0E08081816067
:100730008083E1EBF0E0808184608083E0EBF0E097
:10074000808181608083EAE7F0E08081846080833B
:1007500080818260808380818160808380818068E5
:1007600080831092C1000895FC01818D228D90E05C
:10077000805C9F4F821B91098F7399270895FC011C
:10078000918D828D981731F0828DE80FF11D858D46
:1007900090E008958FEF9FEF0895FC01918D828D79
:1007A000981761F0828DDF01A80FB11D5D968C91C5
:1007B000928D9F5F9F73928F90E008958FEF9FEFD0
:1007C000089581E595E0892B49F080E090E0892B40
:1007D00029F00E94510581110C9400000895FC013C
:1007E000848DDF01A80FB11DA35ABF4F2C91848DBA
:1007F00090E001968F739927848FA689B7892C93EF
:10080000A089B1898C9180648C93938D848D981389
:1008100006C00288F389E02D80818F7D8083089552
:10082000CF93DF93EC01888D8823C9F0EA89FB8997
:10083000808185FD05C0A889B9898C9186FD0FC08E
:100840000FB607FCF5CF808185FFF2CFA889B98963
:100850008C9185FFEDCFCE010E94EF03E7CFDF91B2
:10086000CF910895CF92DF92FF920F931F93CF9372
:10087000DF931F92CDB7DEB76C0181E0D6015896A9
:100880008C9358975B969C915B975C968C915C9748
:10089000981307C05096ED91FC915197808185FD8A
:1008A0002EC0F601038D10E00F5F1F4F0F7311274D
:1008B000F02EF601848DF81211C00FB607FCF9CFA7
:1008C000D6015096ED91FC915197808185FFF1CF33
:1008D000C60169830E94EF036981EBCF838DE80F26
:1008E000F11DE35AFF4F6083D6015B960C935B9733
:1008F0005296ED91FC915397808180620CC0D60195
:100900005696ED91FC91579760835096ED91FC912E
:10091000519780818064808381E090E00F90DF9127
:10092000CF911F910F91FF90DF90CF900895BF92CC
:10093000CF92DF92EF92FF92CF93DF93EC016A01A7
:100940007B01B22EE889F98982E08083411581EE2E
:10095000580761057105A1F060E079E08DE390E052
:10096000A70196010E945C062150310941095109F5
:100970005695479537952795211580E1380798F0CA
:10098000E889F989108260E874E88EE190E0A701B7
:1009900096010E945C062150310941095109569582
:1009A000479537952795EC85FD853083EE85FF8546
:1009B0002083188EEC89FD89B082EA89FB898081C9
:1009C00080618083EA89FB89808188608083EA89ED
:1009D000FB89808180688083EA89FB8980818F7DA3
:1009E0008083DF91CF91FF90EF90DF90CF90BF9009
:1009F00008951F920F920FB60F9211242F938F9389
:100A00009F93EF93FF93E0915C01F0915D018081F2
:100A1000E0916201F091630182FD12C090818091AA
:100A200065018F5F8F7320916601821751F0E0910D
:100A30006501F0E0E45BFE4F958F8093650101C096
:100A40008081FF91EF919F918F912F910F900FBE19
:100A50000F901F9018951F920F920FB60F921124AE
:100A60002F933F934F935F936F937F938F939F93B6
:100A7000AF93BF93EF93FF938CE491E00E94EF0359
:100A8000FF91EF91BF91AF919F918F917F916F9166
:100A90005F914F913F912F910F900FBE0F901F903C
:100AA00018958CE491E00E94B40321E0892B09F4AD
:100AB00020E0822F089510924F0110924E0188EE8F
:100AC00093E0A0E0B0E08093500190935101A09397
:100AD0005201B09353018AE091E090934D018093CD
:100AE0004C0185EC90E0909359018093580184EC7F
:100AF00090E090935B0180935A0180EC90E090939A
:100B00005D0180935C0181EC90E090935F018093A4
:100B10005E0182EC90E0909361018093600186EC2D
:100B200090E09093630180936201109265011092AE
:100B3000660110926701109268010895CF92DF92CA
:100B4000EF92FF920F931F93CF93DF937C016A0183
:100B5000EB0100E010E00C151D0571F06991D70163
:100B6000ED91FC910190F081E02DC7010995892B51
:100B700019F00F5F1F4FEFCFC801DF91CF911F9189
:100B80000F91FF90EF90DF90CF9008956115710560
:100B900081F0DB010D900020E9F7AD0141505109D2
:100BA000461B570BDC01ED91FC910280F381E02D97
:100BB000099480E090E008950C94C60566E171E028
:100BC0000C94C6058F929F92AF92BF92DF92EF92E4
:100BD000FF920F931F93CF93DF93CDB7DEB7A1970B
:100BE0000FB6F894DEBF0FBECDBF7C01F42FD52E1B
:100BF000CB0119A2223008F42AE08E010F5D1F4FAD
:100C0000822E912CA12CB12C6F2F7D2DA50194014A
:100C10000E945C06F22FD32ECA01015011096A30DE
:100C200014F4E0E301C0E7E3E60FD801EC93232BD3
:100C3000242B252B49F7B801C7010E94C605A196B0
:100C40000FB6F894DEBF0FBECDBFDF91CF911F91DD
:100C50000F91FF90EF90DF90BF90AF909F908F909B
:100C600008952115310541F4DC01ED91FC910190CD
:100C7000F081E02D642F09940C94E2059A01462F2F
:100C800050E060E070E00C9431069A01AB0160E046
:100C900070E00C94310608950E9479030E944B067F
:100CA0000E94B100C1EED3E00E94EA002097E1F378
:100CB0000E94E103F9CF0895A1E21A2EAA1BBB1BE3
:100CC000FD010DC0AA1FBB1FEE1FFF1FA217B30718
:100CD000E407F50720F0A21BB30BE40BF50B661F2E
:100CE000771F881F991F1A9469F7609570958095F2
:100CF00090959B01AC01BD01CF010895EE0FFF1F40
:0C0D00000590F491E02D0994F894FFCFC9
:100D0C003D00636D20000000000032049E05B4031A
:100D1C00CD03BF0310040D0A006E616E00696E6690
:080D2C00006F7666002E000046
:00000001FF
