:100000000C9463000C948B000C948B000C9492075E
:100010000C9492070C9492070C948B000C948B0018
:100020000C948B000C948B000C948B000C948B0024
:100030000C948B000C948B000C948B000C948B0014
:100040000C9423050C948B000C9418040C94F2036C
:100050000C948B000C948B000C948B000C948B00F4
:100060000C946D050C948B00000000002400270008
:100070002A0000000008000201000003040700003D
:1000800000000000000000000000250028002B00F8
:1000900000000000230026002900040404040404D6
:1000A0000404020202020202030303030303010227
:1000B00004081020408001020408102001020408F6
:1000C0001020E210480B11241FBECFEFD8E0DEBF96
:1000D000CDBF12E0A0E0B1E0ECE2FDE202C005908D
:1000E0000D92A435B107D9F724E0A4E5B2E001C030
:1000F0001D92A934B207E1F710E0C2E6D0E004C0D7
:100100002197FE010E942F12C136D107C9F70E9424
:10011000520B0C9489160C9400000895CF92DF9234
:10012000EF92FF920F931F93CF93DF936C017A01AD
:100130008B01C0E0D0E0CE15DF0589F0D8016D91CC
:100140008D01D601ED91FC910190F081E02DC60169
:100150000995892B11F47E0102C02196ECCFC701CD
:10016000DF91CF911F910F91FF90EF90DF90CF9093
:100170000895FC01918D828D981761F0828DDF01C9
:10018000A80FB11D5D968C91928D9F5F9F73928F8A
:1001900090E008958FEF9FEF0895FC01918D828D7F
:1001A000981731F0828DE80FF11D858D90E008954C
:1001B0008FEF9FEF0895FC01918D228D892F90E0A4
:1001C000805C9F4F821B91098F739927089584E665
:1001D00093E00E94DB0021E0892B09F420E0822FCC
:1001E0000895FC01848DDF01A80FB11DA35ABF4FF4
:1001F0002C91848D90E001968F739927848FA68926
:10020000B7892C93A089B1898C9180648C93938D4C
:10021000848D981306C00288F389E02D80818F7D3C
:1002200080830895EF92FF920F931F93CF93DF93F4
:10023000EC0181E0888F9B8D8C8D981305C0E88937
:10024000F989808185FD24C0F62E0B8D10E00F5FAB
:100250001F4F0F731127E02E8C8DE8120CC00FB6C4
:1002600007FCFACFE889F989808185FFF5CFCE01B7
:100270000E94F100F1CF8B8DFE01E80FF11DE35AD2
:10028000FF4FF0820B8FEA89FB898081806207C073
:10029000EE89FF896083E889F989808180648083A1
:1002A00081E090E0DF91CF911F910F91FF90EF904F
:1002B0000895CF93DF93EC01888D8823C9F0EA89F4
:1002C000FB89808185FD05C0A889B9898C9186FD4F
:1002D0000FC00FB607FCF5CF808185FFF2CFA8894C
:1002E000B9898C9185FFEDCFCE010E94F100E7CF57
:1002F000DF91CF91089580E090E0892B29F00E9452
:10030000E70081110C94000008953FB7F8948091A4
:10031000E2029091E302A091E402B091E50226B5D9
:10032000A89B05C02F3F19F00196A11DB11D3FBF2D
:10033000BA2FA92F982F8827820F911DA11DB11DBB
:10034000BC01CD0142E0660F771F881F991F4A95B7
:10035000D1F7089585ED8093BC008091BC0084FDA9
:10036000FCCF10923F0308954091B802262F30E051
:10037000240F311D21323105DCF420913F0324305C
:10038000C9F4FC0180E090E0861758F43091B8027F
:100390002191DC01AA56BD4FA30FB11D2C930196EC
:1003A000F3CF8091B802680F6093B80280E008959F
:1003B00081E0089582E00895089581E090E0309111
:1003C000950220919402321710F480E090E091950C
:1003D00081959109089580919502909194028917D1
:1003E00030F48F5F8093950280E090E008958FEF66
:1003F0009FEF08958091940290E020919502821BD6
:1004000091090895CF92DF92EF92FF920F931F937D
:10041000CF93DF937C01262F972F8A018091400391
:10042000882391F0C62FD72F6E01C40ED51ECC1590
:10043000DD0571F06991D701ED91FC910190F0819A
:10044000E02DC7010995F3CF642F822F0E94B401DC
:10045000C801DF91CF911F910F91FF90EF90DF9036
:10046000CF900895CF93DF931F92CDB7DEB7698306
:10047000209140032223D1F020916303203240F0E9
:1004800021E030E0FC013383228380E090E015C05E
:1004900080914103E82FF0E0EE5BFC4F998190835F
:1004A0008F5F809341038093630305C061E0CE01B9
:1004B00001960E94B40181E090E00F90DF91CF910E
:1004C000089521E001C0220F6A95EAF7DC011C962D
:1004D0002C931C971A965C934E931997ED91FC916F
:1004E0000084F185E02D60E00994DC01ED91FC9140
:1004F0000284F385E02D41E0099581E090E00895C4
:10050000089508952091E8023091E90228173907EB
:1005100071F49091E6028091E702981741F0E09122
:10052000E602F0E0EC5AFD4F808190E008958FEFF5
:100530009FEF089508951F93CF93DF93DC015C969E
:100540002D913C915D972115310539F481E090E0C2
:1005500013969C938E9312973DC05196ED91FC910A
:10056000529750969C915097892F80951FB75E9611
:100570004C915E9741FB772770F941FD6095F894A7
:100580004081772311F0492B01C048234083E901C2
:100590002197F1F748E0508160FF02C0592B01C05C
:1005A00058235083E9012197F1F76695415099F757
:1005B000772321F090818923808303C08081982B49
:1005C00090831FBF5C968D919C915D970197F1F789
:1005D00021E030E0C901DF91CF911F910895209172
:1005E000E8023091E9022817390771F48091E70297
:1005F0002091E60290E0805C9F4F821B910960E4AD
:1006000070E00E94E511089580E090E00895209147
:10061000E8023091E90228173907B9F49091E6020F
:100620008091E702981789F0E091E602F0E0EC5A39
:10063000FD4F80812091E60230E02F5F3F4F2F7306
:1006400033272093E60290E008958FEF9FEF0895FF
:10065000FC0123812223B9F0918190956923608365
:10066000828191E090934003809362031092410352
:100670001092630381E094E00E9432020E94EB0A30
:10068000282F30E002C020E030E081E090E0232B12
:1006900011F080E090E00895EF92FF920F931F9386
:1006A000CF938C01FC01759684E0C0E060FF02C02E
:1006B0009081C92B6695815031968111F7CF4130D9
:1006C00011F4F8014489F8018585C82BC42B780101
:1006D000FEE0EF0EF11CF80162896C2BC7010E944D
:1006E0002803F801628960956C23C701CF911F919F
:1006F0000F91FF90EF900C9428030F931F93CF93CB
:10070000DF93062F0F70423019F440E0602F10C0C5
:10071000142F262FEC0130E0B90184E07595679520
:100720008A95E1F7CE010E944C03412F602FCE0144
:10073000DF91CF911F910F910C944C03FC018485A4
:100740008823A9F0218532852115310519F461111D
:1007500006C007C02130310521F4611102C0858730
:1007600001C015866585CF010E960C942803089567
:10077000FC0111821082138212821582148261158B
:10078000710551F0FB0101900020E9F73197AF01AD
:10079000461B570B0C94CD080895DC01ED91FC919C
:1007A000DB0114964D915C9115976D917C910280BF
:1007B000F381E02D09946115710579F0FB01019039
:1007C0000020E9F73197AF01461B570BDC01ED9193
:1007D000FC910280F381E02D099480E090E008957F
:1007E0000C94DB031F920F920FB60F9211242F93DC
:1007F0003F934F935F936F937F938F939F93AF93A9
:10080000BF93EF93FF9384E693E00E94F100FF9182
:10081000EF91BF91AF919F918F917F916F915F9178
:100820004F913F912F910F900FBE0F901F901895F1
:100830001F920F920FB60F9211242F938F939F93B5
:10084000EF93FF93E0917403F09175038081E09141
:100850007A03F0917B0382FD12C0908180917D0329
:100860008F5F8F7320917E03821751F0E0917D039B
:10087000F0E0EC59FC4F958F80937D0301C080819F
:10088000FF91EF919F918F912F910F900FBE0F903D
:100890001F90189590E0FC01EE58FF4F3491FC0139
:1008A000E255FF4F2491FC01E656FF4FE491EE2301
:1008B00009F43BC0332339F1333091F038F431304F
:1008C000A9F0323001F584B58F7D12C0373091F038
:1008D0003830A1F03430B9F4809180008F7D03C0AE
:1008E000809180008F77809380000DC084B58F77D2
:1008F00084BD09C08091B0008F7703C08091B000A3
:100900008F7D8093B000F0E0EE0FFF1FEA57FF4F9E
:10091000A591B4918FB7F894EC91611103C0209523
:100920002E2301C02E2B2C938FBF0895CF93DF93DE
:1009300090E0FC01E255FF4F2491FC01E656FF4F89
:100940008491882361F190E0880F991FFC01E85998
:10095000FF4FC591D491FC01EA57FF4FA591B49187
:10096000611109C09FB7F8948881209582238883FC
:10097000EC912E230BC0623061F49FB7F89438815C
:10098000822F809583238883EC912E2B2C939FBFFD
:1009900006C08FB7F894E8812E2B28838FBFDF9194
:1009A000CF9108958E3008F08E50877080648093C8
:1009B0007C0080917A00806480937A0080917A0034
:1009C00086FDFCCF809178002091790090E0922BF9
:1009D00008958F929F92AF92BF92CF92DF92EF9243
:1009E000FF926B017C010E9485014B015C01C114E7
:1009F000D104E104F104F1F00E948501DC01CB0196
:100A000088199909AA09BB09883E9340A105B10537
:100A100070F321E0C21AD108E108F10888EE880ECF
:100A200083E0981EA11CB11CC114D104E104F1049F
:100A300019F7DDCFFF90EF90DF90CF90BF90AF9090
:100A40009F908F9008951F920F920FB60F921124CE
:100A50002F933F938F939F93AF93BF938091DE0229
:100A60009091DF02A091E002B091E1023091DD02AD
:100A700023E0230F2D3720F40196A11DB11D05C0E1
:100A800026E8230F0296A11DB11D2093DD0280935D
:100A9000DE029093DF02A093E002B093E102809126
:100AA000E2029091E302A091E402B091E502019686
:100AB000A11DB11D8093E2029093E302A093E40292
:100AC000B093E502BF91AF919F918F913F912F918C
:100AD0000F900FBE0F901F9018951F920F920FB698
:100AE0000F9211242F933F934F935F936F937F93B4
:100AF0008F939F93AF93BF93EF93FF938091B90030
:100B0000887F803609F49CC068F5883209F45BC0A0
:100B100090F4803109F454C038F4882309F4F6C005
:100B2000883009F44DC0F6C0883109F44CC08032D9
:100B300009F45DC0EFC0803409F468C048F4803324
:100B400009F455C0883309F0E5C080933D03D8C04F
:100B5000803509F44FC0883509F45DC0883409F048
:100B6000D9C0D6C0883909F4C7C0A8F4883709F4B9
:100B700067C038F4883609F463C0803709F460C070
:100B8000C9C0883809F4B8C0803909F45FC080381A
:100B900009F0C0C05BC0803B09F486C038F4803ADD
:100BA00009F466C0883A09F47FC0B4C0803C09F4F7
:100BB000A7C0883C09F4A4C0883B09F48AC0AAC035
:100BC00080911A0310C090913C0380913B039817C9
:100BD00070F5E0913C0381E08E0F80933C03F0E0E0
:100BE000E55EFC4F80818093BB0085EC86C08093DE
:100BF0003D038EC0E0913C0381E08E0F80933C0367
:100C00008091BB00F0E0E55EFC4F808390913C0357
:100C100080913B036EC0E0913C0381E08E0F809396
:100C20003C038091BB00F0E0E55EFC4F8083809147
:100C30003E0381116DC081E08093190384EA61C095
:100C400083E080933F031092DC02CFCF8091DC02DF
:100C5000803208F051C0E091DC0281E08E0F809379
:100C6000DC028091BB00F0E0E454FD4F8083BDCFF7
:100C700085EC8093BC0010923F038091DC028032AF
:100C800030F4E091DC02F0E0E454FD4F108260911A
:100C9000DC0270E0E091BA02F091BB028CEB92E0D2
:100CA00009951092DC0236C084E080933F031092D5
:100CB000B9021092B802E091B602F091B70209951C
:100CC0008091B802811105C081E08093B802109232
:100CD0009602E091B90281E08E0F8093B902F0E0B4
:100CE000EA56FD4F80818093BB009091B9028091BC
:100CF000B802981708F479CF85E88093BC000AC041
:100D000085EC8093BC0010923F0304C010923D0319
:100D10000E94AA01FF91EF91BF91AF919F918F9196
:100D20007F916F915F914F913F912F910F900FBEE7
:100D30000F901F901895DC01ED91FC910284F385D2
:100D4000E02D40E009940F931F93CF93DF93EC01C4
:100D5000423018F08C8188608C834F83688722230F
:100D600029F0413019F48C8184608C8364E670E052
:100D700080E090E00E94E9046C8164FD31C0E8816C
:100D8000F9810284F385E02D42E063E0CE0109950C
:100D90008BE496E40197F1F7E881F9810284F38509
:100DA000E02D42E063E0CE01099503E512E0C801C1
:100DB0000197F1F7E881F9810284F385E02D42E0A3
:100DC00063E0CE010995C8010197F1F7E881F98147
:100DD0000284F385E02D42E062E0CE01099517C060
:100DE0006062CE010E949B068BE496E40197F1F7C6
:100DF0006C816062CE010E949B0603E512E0C8018F
:100E00000197F1F76C816062CE010E949B06C801D8
:100E10000197F1F76C816062CE010E949B068BEE18
:100E200090E00197F1F784E08D836CE0CE010E94A1
:100E30009B0661E0CE010E949B068BE39FE1019738
:100E4000F1F782E08E8366E0CE010E949B06E88186
:100E5000F9810084F185E02D6FEFCE01DF91CF9114
:100E60001F910F910994EF92FF920F931F93CF93CD
:100E7000DF93EC01062FF42EE22E8B85888B1092E7
:100E80009502109294021092410310926303109203
:100E90003F0311E010933E031092190361E082E1D9
:100EA0000E944A0461E083E10E944A048091B900F3
:100EB0008E7F8093B9008091B9008D7F8093B900B7
:100EC00088E48093B80085E48093BC0088891093FF
:100ED00040038093620310924103109263030E94C7
:100EE000EB0A91E0811190E0998B992329F081E040
:100EF00094E00E94EB018E878989882339F01F8650
:100F00001C8260E0CE010E960E9428032E2D4F2DEC
:100F1000602FCE01DF91CF911F910F91FF90EF9045
:100F20000C94A3061F920F920FB60F9211242F93C9
:100F30003F934F935F936F937F938F939F93AF9361
:100F4000BF93EF93FF93E091E802F091E9023097AD
:100F500009F451C0968DA685B785858591FF04C09B
:100F60009C91892329F447C09C91892309F043C0AF
:100F7000A389B4899C918589809589238C938689DE
:100F800097890197F1F7608D718DA685B785558595
:100F900038E020E0CB010197F1F7822F90E09595A2
:100FA0008795282F4C91452309F02068315091F7FF
:100FB000868D81FD20958091E70290E001968F73E8
:100FC00099273091E602381749F0A091E702B0E086
:100FD000AC5ABD4F2C938093E70203C0868D81608D
:100FE000868F828D938D0197F1F7A389B4899C91A7
:100FF0008589892B8C93FF91EF91BF91AF919F9140
:101000008F917F916F915F914F913F912F910F90B1
:101010000FBE0F901F901895E091E802F091E90241
:10102000E817F90769F4A389B4899C9185898095AB
:1010300089238C931092E9021092E80281E00895CE
:1010400080E00895FC01808191810C9477130E94C7
:10105000D9140F931F93CF93DF938C01EB01FC0105
:10106000808191810097B1F0688179816115710566
:1010700079F0428153812C813D814217530740F022
:101080000E94E7148C819D81F8019583848313C0AD
:101090000E94771388819981F801918380838A81E6
:1010A0009B81938382838C819D8195838483198224
:1010B00018821B821A821D821C82DF91CF911F91A0
:1010C0000F910895CF93DF93EC0188819981009768
:1010D00011F00E947713198218821D821C821B82D4
:1010E0001A82DF91CF9108950F931F93CF93DF93CF
:1010F000EC0188819981009729F02A813B8126178C
:10110000370788F48B016F5F7F4F0E940F140097A1
:1011100061F0998388831B830A832C813D81232B73
:1011200011F4FC01108281E001C080E0DF91CF91D9
:101130001F910F910895EF92FF920F931F93CF93FA
:10114000DF93EC01FB0184819581E080F1800C81CB
:101150001D81E114F104B1F00097B9F0080F191FD7
:10116000B801CE010E947408882361F0288139817A
:101170008C819D81B701820F931F0E94E7141D830C
:101180000C8303C0CE010E946208CE01DF91CF9193
:101190001F910F91FF90EF900895EF92FF920F93A0
:1011A0001F93CF93DF93EC017B018A01BA010E9468
:1011B0007408811104C0CE010E94620807C01D831B
:1011C0000C83B701888199810E94E714CE01DF91D9
:1011D000CF911F910F91FF90EF900895EF92FF92A2
:1011E0000F931F93CF93DF93CDB7DEB762970FB600
:1011F000F894DEBF0FBECDBF8C01CB01F801118288
:101200001082138212821582148250E09E012F5F99
:101210003F4F7901B9010E94EE14F70101900020BF
:10122000E9F73197AF014E195F09B701C8010E9474
:10123000CD0862960FB6F894DEBF0FBECDBFDF912A
:10124000CF911F910F91FF90EF900895CF93DF936F
:10125000CDB7DEB728970FB6F894DEBF0FBECDBF6F
:101260001D8290E49E8324E12F8324E52887198240
:101270009A8390E19B8390E59C83209133048217AD
:1012800010F08FEF820F3091340490E0FE01E80FF0
:10129000F91F303121F4243011F4618101C06581DE
:1012A00060688CE294E028960FB6F894DEBF0FBE1B
:1012B000CDBFDF91CF910C949B06EF92FF920F93DD
:1012C0001F93CF93DF9300D0CDB7DEB78C0180E4BE
:1012D00089831A82F801E480F580FFEFEF1AFF0A94
:1012E000B701C8010E947408882381F0F8012081A9
:1012F000318184819581BE016F5F7F4F820F931F83
:101300000E94E714F801F582E48203C0C8010E943C
:101310006208C8010F900F90DF91CF911F910F913C
:10132000FF90EF9008958F929F92AF92BF920F938C
:101330001F93CF93DF93CDB7DEB7A1970FB6F89485
:10134000DEBF0FBECDBF19A2423008F44AE08E01C5
:101350000F5D1F4F842E912CA12CB12CA50194015F
:101360000E94F911E62FB901CA0101501109EA30B2
:1013700014F4E05D01C0E95CD801EC93232B242B2D
:10138000252B61F7B80184E693E00E94DB03A19668
:101390000FB6F894DEBF0FBECDBFDF91CF911F9186
:1013A0000F91BF90AF909F908F900895CF92DF9252
:1013B000EF92FF92CF93DF936B017C01E091640386
:1013C000F09165030190F081E02D6DE284E693E0F9
:1013D0000995EC0166277727CB016C197D098E09E9
:1013E0009F094AE00E9493098C0F9D1FDF91CF91C6
:1013F000FF90EF90DF90CF900895BC01990F880B7C
:10140000990B97FD0C94D6094AE00C949309CF935D
:10141000DF93BC0184E693E00E94DB03EC016CEFF8
:1014200071E084E693E00E94DB038C0F9D1FDF9147
:10143000CF9108958F929F92AF92BF92CF92DF92F9
:10144000EF92FF92CF93DF936B017C019B01AC0184
:101450000E94DD12882319F066E472E027C046017D
:101460005701E894B7F82FEF3FEF4FE75FE7C5016B
:10147000B4010E94DD1281110DC02FEF3FEF4FE745
:101480005FE7C501B4010E942E1518161CF46AE42A
:1014900072E00CC02FEF3FEF4FE75FE4C701B601EA
:1014A0000E94D812181684F46EE472E084E693E089
:1014B000DF91CF91FF90EF90DF90CF90BF90AF90F2
:1014C0009F908F900C94DB032FEF3FEF4FE75FEC83
:1014D000C701B6010E942E1587FDE6CF20E030E05F
:1014E000A901C701B6010E942E1587FF11C0E09126
:1014F0006403F09165030190F081E02D6DE284E6D4
:1015000093E00995EC01F7FAF094F7F8F09402C033
:10151000C0E0D0E02AE037ED43EA5BE3C701B60163
:101520000E9436124B015C010E94A9126B017C01E2
:101530000E9433159B01AC01C501B4010E94351214
:101540004B015C014AE0C701B6010E949309C80F34
:10155000D91F62E572E084E693E00E94DB03C80FC6
:10156000D91F20E030E040E251E4C501B4010E94FF
:1015700094154B015C010E94A9126B01E12CF12C26
:101580004AE0C701B6010E949309C80FD91FC701DD
:10159000B6010E9433159B01AC01C501B4010E9444
:1015A000351220E030E040E251E40E9494150E94A0
:1015B000A91280E090E04AE00E9493098C0F9D1FE1
:1015C000DF91CF91FF90EF90DF90CF90BF90AF90E1
:1015D0009F908F9008952091630390916203213230
:1015E00008F04AC080913F038111FCCF32E0309374
:1015F0003F0331E030933E033FEF30933D031092C1
:101600003C0320933B03A2E4B3E04BE153E0FA0137
:101610003E2F341B321718F43D913193F9CF1092BD
:101620001A0320911A03990F922B90931A03909109
:101630001903913061F41092190390911A03909359
:10164000BB009091BC0093FDF8CF95EC01C095EEE6
:101650009093BC0090913F039230E1F390913D0351
:101660009F3F79F080913D03803241F080913D03AE
:10167000803331F084E005C081E003C082E001C026
:1016800083E0109241031092630310924003089587
:101690008CE291E090930E0480930D048DE094E031
:1016A0000C940C08CF93DF93CDB7DEB7A9970FB694
:1016B000F894DEBF0FBECDBF789484B5826084BD40
:1016C00084B5816084BD85B5826085BD85B5816046
:1016D00085BD80916E00816080936E0010928100C4
:1016E000809181008260809381008091810081607F
:1016F0008093810080918000816080938000809140
:10170000B10084608093B1008091B00081608093CB
:10171000B00080917A00846080937A0080917A0092
:10172000826080937A0080917A00816080937A0051
:1017300080917A00806880937A001092C100E091D5
:101740007403F091750382E08083E0917003F0915F
:1017500071031082E0917203F09173038FEC808328
:1017600010927C03E0917803F091790386E0808306
:10177000E0917603F0917703808180618083E0912E
:101780007603F0917703808188608083E09176030F
:10179000F0917703808180688083E0917603F091F7
:1017A000770380818F7D808361E082E00E949604D0
:1017B00061E083E00E94960461E084E00E94960468
:1017C00061E085E00E94960461E086E00E94960454
:1017D00020E042E060E18CE294E00E943307E09177
:1017E0002C04F0912D040084F185E02D6FEF8CE244
:1017F00094E0099580E00E94260968E471E08CE29B
:1018000094E00E94F00381E00E94260968E571E0FF
:101810008CE294E00E94F00381E691E00E94070AC6
:101820001092280410922704109226041092250486
:1018300010922404109223048DE991E090932A04DD
:101840008093290490911904963108F057C02DEB2C
:1018500030E030932404209323042BE931E03093CB
:101860002604209325042CE231E0309328042093B1
:10187000270420916800983050F031E09E3008F441
:1018800030E081E001C0880F3A95EAF701C084E0BA
:10189000822B80936800983038F09E3040F096316B
:1018A00048F020E030E008C02DE630E005C02BE62F
:1018B00030E002C02CE630E0309321042093200475
:1018C000983030F481E001C0880F9A95EAF70EC095
:1018D000292F30E09E3018F42850310902C02E50D4
:1018E000310981E001C0880F2A95EAF7809322042C
:1018F0008091290490912A040197F1F7809127049F
:1019000090912804892B21F18091E8029091E902BD
:1019100024E08D309207E1F0009711F00E940C084E
:1019200080912B048E7F80932B041092E7021092FB
:10193000E6028DE094E09093E9028093E802E09162
:101940002004F0912104908180912204892B8083CE
:1019500064EF71E080E090E00E94E90481E791E0AB
:101960000E94070A8FE00E94D204BC01990F880BE5
:10197000990B0E94351520E030E04AEF5EE30E94AB
:1019800094154B015C018EE00E94D2048C01BC01D5
:10199000990F880B990B0E9435152B013C01E6EB42
:1019A000F0E0F491FDA3E2EAF0E08491E82FF0E0AA
:1019B000EE0FFF1FE057FF4FE590F49061E088E0E5
:1019C0000E94960460E088E00E944A048BE99FE050
:1019D0000197F1F761E088E00E944A0460E088E046
:1019E0000E94960420E233E0D7018C919DA18923C7
:1019F00031F021503109C1F75DEFE52E76C020E9C5
:101A000031E0D7018C919DA1892331F42150310916
:101A1000C1F74CEFE42E69C020E931E0D7018C9189
:101A20009DA1892331F021503109C1F73BEFE32E0D
:101A30005CC0F0E0A0E8A9A7E0E0212C312C20E96F
:101A400031E0A0E9CA2EDD24D39448E290E0D7012A
:101A50005C91BDA15B23B9F59923A9F14332A8F0AC
:101A60002C153D0508F4690180E991E0A0E0B0E0A3
:101A70008C199D09A109B10972E0B595A7959795B3
:101A800087957A95D1F71C0108C0B60162197309D0
:101A90006217730710F029A5E22BA9A58A2F90E001
:101AA00095958795009711F089A70AC0AF2FB0E0F0
:101AB000A45FBC4F1896EC93FF5FE0E0B0E8B9A7D5
:101AC000415020E931E02150310969F0952F411151
:101AD000BECF61E088E00E94960461E088E00E9449
:101AE0004A04E12C02C02EEFE22E80911403837091
:101AF000D82E80931403F0901603EF2DE378CE2EAA
:101B0000E093160330901503682F70E0762F662758
:101B1000630D711D072E000C880B990B0E94351563
:101B20002DEC3CEC4CEC5DE30E94941560930C03AF
:101B300070930D0380930E0390930F03209017036F
:101B40006F2D637070E0762F6627620D711D072E72
:101B5000000C880B990B0E9435152DEC3CEC4CECDD
:101B60005DE30E949415C7FC09C060931003709355
:101B7000110380931203909313030BC0DC01CB017C
:101B8000B0588093100390931103A0931203B09365
:101B90001303320CD30CCD0C809118038C113EC072
:101BA000FEEFEF1609F450C0FE15ECF02CEFE21634
:101BB00009F460C08DEFE81273C08091FC0290912F
:101BC000FD02A091FE02B091FF020196A11DB11D80
:101BD0008093FC029093FD02A093FE02B093FF025B
:101BE00085EA91E072C09FEFE916C1F0E11058C09C
:101BF0008091F0029091F102A091F202B091F30273
:101C00000196A11DB11D8093F0029093F102A09363
:101C1000F202B093F3028EE791E057C08091F40294
:101C20009091F502A091F602B091F7020196A11DE4
:101C3000B11D8093F4029093F502A093F602B09345
:101C4000F70283E891E041C08091F8029091F90297
:101C5000A091FA02B091FB020196A11DB11D8093E3
:101C6000F8029093F902A093FA02B093FB0284E980
:101C700091E02BC08091000390910103A091020399
:101C8000B09103030196A11DB11D809300039093B1
:101C90000103A0930203B093030385EB91E015C009
:101CA0008091040390910503A0910603B09107036E
:101CB0000196A11DB11D8093040390930503A09389
:101CC0000603B093070385EC91E00E94070AC090D9
:101CD0000C03D0900D03E0900E03F0900F03809161
:101CE000100390911103A0911203B09113038DA3DF
:101CF0009EA3AFA3B8A766ED71E084E693E00E94CF
:101D0000F00360E871E084E693E00E94F00360E88D
:101D100071E084E693E00E94F0036CED71E084E6EC
:101D200093E00E94F00360E871E084E693E00E9493
:101D3000F00367EE71E084E693E00E94F00360E850
:101D400071E084E693E00E94F00383EF91E00E944B
:101D5000070AC301B2010E941A0A60E871E084E632
:101D600093E00E94F00360E871E084E693E00E9453
:101D7000F003C501B4010E941A0A60E871E084E62C
:101D800093E00E94F00360E871E084E693E00E9433
:101D9000F0036DA17EA18FA198A50E941A0A60E8A8
:101DA00071E084E693E00E94F00360E871E084E66D
:101DB00093E00E94F003C701B6010E941A0A82E86C
:101DC00091E00E94070AC501B4010E94A2122B01F2
:101DD0003C016DA17EA18FA198A50E94A2124B018A
:101DE0005C017EA36DA3C701B6010E94A2126B0124
:101DF0007C011B01013293E0190714F060E001C07F
:101E000061E082E00E944A04ADA1BEA161E0599761
:101E100034F483E00E944A0460E084E005C084E07A
:101E20000E944A0460E083E00E944A04BDE32B164E
:101E3000310414F061E001C060E085E00E944A04D2
:101E400062E871E0CE014F960E94B80362E871E04B
:101E5000CE0149960E94B80362E871E0CE01439634
:101E60000E94B80362E871E0CE010D960E94B803AB
:101E700062E871E0CE0107960E94B8034AE0B8011B
:101E8000CE0101960E94EE08BE016F5F7F4FCE012A
:101E90004F960E942908CE0101960E9422084AE02E
:101EA000B201CE0101960E94EE08BE016F5F7F4F26
:101EB000CE0149960E942908CE0101960E9422086F
:101EC0004AE0B401CE0101960E94EE08BE016F5FA8
:101ED0007F4FCE0143960E942908CE0101960E94B1
:101EE00022084AE0B601CE0101960E94EE08BE012A
:101EF0006F5F7F4FCE010D960E942908CE0101969B
:101F00000E942208C8010E94FD0960E871E084E691
:101F100093E00E94F00360E871E084E693E00E94A1
:101F2000F003C2010E94FD0960E871E084E693E0DD
:101F30000E94F00360E871E084E693E00E94F00301
:101F4000C4010E94FD0960E871E084E693E00E940C
:101F5000F00360E871E084E693E00E94F003B601CC
:101F6000DD0C880B990B97FF03C00E94D60903C0B4
:101F70004AE00E9493096CEF71E084E693E00E94CE
:101F8000DB031A8219821C821B821E821D826F8DC6
:101F900078A16115710531F04BA15CA1CE010196CC
:101FA0000E94CD08CE0101960E945D09BE01675EC8
:101FB0007F4F0E949B080E945D09BE016D5E7F4FAE
:101FC0000E949B080E945D09BE01635F7F4F0E94D3
:101FD0009B08BC018DE094E00E94CD036CEF71E0A2
:101FE0008DE094E00E94DB03CE0101960E9422085E
:101FF0001A8219821C821B821E821D826F8D78A11B
:102000006115710531F04BA15CA1CE0101960E94D2
:10201000CD08CE0101960E945D09BE01675E7F4F2B
:102020000E949B080E945D09BE016D5E7F4F0E9469
:102030009B080E945D09BE01635F7F4F0E949B0861
:10204000BC0184E693E00E94CD036CEF71E084E66E
:1020500093E00E94DB03CE0101960E94220880914A
:10206000000190910101019749F461E086E00E942E
:102070004A0410920101109200010AC060E086E05B
:102080000E944A0481E090E0909301018093000156
:102090008091EA029091EB0201969093EB0280937B
:1020A000EA0261E08CE294E00E949B068BE39FE1F0
:1020B0000197F1F780E00E9426096FEF71E08CE252
:1020C00094E00E94F00381E00E9426098091EA02D8
:1020D0009091EB028130910551F461E172E08CE264
:1020E00094E00E94F003BE01615E7F4F0CC082301D
:1020F000910571F469E172E08CE294E00E94F003D2
:10210000BE01675E7F4F8CE294E00E94CD0323C046
:102110008330910551F466E272E08CE294E00E9413
:10212000F003BE016D5E7F4FEECF049771F4109205
:10213000EB021092EA0264E372E08CE294E00E9407
:10214000F003BE01635F7F4FDECF6FE372E08CE28E
:1021500094E00E94F003CE0107960E942208CE016F
:102160000D960E942208CE0143960E942208CE01BD
:1021700049960E942208CE014F960E94220868EEDE
:1021800073E080E090E00E94E9048DE094E00E941A
:10219000EF02892B49F08DE094E00E940703682F3D
:1021A00084E693E00E94120184E693E00E94DB0043
:1021B0001816190624F484E693E00E94B9000E94E0
:1021C0007B01CCCBCF92DF92EF92FF92CF93109214
:1021D00067031092660398EEC92E93E0D92EE12C86
:1021E000F12CC0926803D0926903E0926A03F092E6
:1021F0006B038CE091E0909365038093640385EC1E
:1022000090E0909371038093700384EC90E090933E
:1022100073038093720380EC90E090937503809336
:10222000740381EC90E0909377038093760382ECC3
:1022300090E0909379038093780386EC90E09093FC
:102240007B0380937A0310927D0310927E03109299
:102250007F03109280031092040410920304C09232
:102260000504D0920604E0920704F09208048CE181
:1022700091E0909302048093010410922F04109235
:102280002E048CE391E090932D0480932C04109203
:102290003C048FEF80933B0410923A0410923D046B
:1022A00087E2809337041092380410923904109218
:1022B00036041092350484E080933E0482E08093DB
:1022C0003F04C1E0C093400480E18093410480E278
:1022D0008093420480E48093430480E88093440424
:1022E00040E050E063E08CE294E00E9461021092D2
:1022F000100410920F04C0921104D0921204E092C4
:102300001304F09214048CE291E090930E048093F5
:102310000D041092240410922304109226041092AB
:102320002504109228041092270410922A04109277
:10233000290480912B048E7F8D7F80932B048695BA
:102340008170682F6C278CE00E944A0461E08CE069
:102350000E949604EAEBF0E0E491E0931D04E6EAC3
:10236000F0E0E491F0E0EE0FFF1FEA57FF4F859198
:10237000949190931F0480931E0460E08BE00E9470
:10238000960480912B0481FD04C061E08BE00E94E3
:102390004A048BE080931904E9EBF0E0E491E093C8
:1023A0001A04E5EAF0E0E491F0E0EE0FFF1FE057D9
:1023B000FF4F8591949190931C0480931B04CF91BF
:1023C000FF90EF90DF90CF90089597FB072E16F4C3
:1023D000009407D077FD09D00E941B1207FC05D09E
:1023E0003EF4909581959F4F0895709561957F4F2C
:1023F0000895A1E21A2EAA1BBB1BFD010DC0AA1F46
:10240000BB1FEE1FFF1FA217B307E407F50720F05D
:10241000A21BB30BE40BF50B661F771F881F991FD8
:102420001A9469F760957095809590959B01AC0121
:10243000BD01CF010895AA1BBB1B51E107C0AA1F14
:10244000BB1FA617B70710F0A61BB70B881F991F55
:102450005A95A9F780959095BC01CD010895EE0F8E
:10246000FF1F0590F491E02D09945058BB27AA272F
:102470000E944D120C9418160E940A1638F00E9401
:10248000111620F039F49F3F19F426F40C94071626
:102490000EF4E095E7FB0C940116E92F0E94291633
:1024A00058F3BA17620773078407950720F079F489
:1024B000A6F50C944B160EF4E0950B2EBA2FA02D1A
:1024C0000B01B90190010C01CA01A0011124FF27E1
:1024D000591B99F0593F50F4503E68F11A16F040DC
:1024E000A22F232F342F4427585FF3CF46953795DB
:1024F0002795A795F0405395C9F77EF41F16BA0BA0
:10250000620B730B840BBAF09150A1F0FF0FBB1F4D
:10251000661F771F881FC2F70EC0BA0F621F731F96
:10252000841F48F4879577956795B795F7959E3FF3
:1025300008F0B0CF9395880F08F09927EE0F979584
:10254000879508950E94A9126894B1110C944C16B5
:1025500008950E94311688F09F5798F0B92F992757
:10256000B751B0F0E1F0660F771F881F991F1AF07E
:10257000BA95C9F714C0B13091F00E944B16B1E082
:1025800008950C944B16672F782F8827B85F39F081
:10259000B93FCCF3869577956795B395D9F73EF417
:1025A00090958095709561957F4F8F4F9F4F0895BF
:1025B0000E94701508F48FEF08950E947015880B23
:1025C000990B0895CF93DF938230910510F482E048
:1025D00090E0E0914704F091480420E030E0C0E052
:1025E000D0E0309711F14081518148175907C0F070
:1025F0004817590761F482819381209719F09B83D2
:102600008A832BC0909348048093470426C02115E9
:10261000310519F04217530718F49A01BE01DF0182
:10262000EF010280F381E02DDCCF2115310509F1A6
:10263000281B390B2430310590F412968D919C9112
:1026400013976115710521F0FB019383828304C008
:102650009093480480934704FD01329644C0FD01E5
:10266000E20FF31F81939193225031092D933C93F4
:102670003AC02091450430914604232B41F4209127
:1026800004013091050130934604209345042091C4
:102690000201309103012115310541F42DB73EB7F8
:1026A0004091060150910701241B350BE091450430
:1026B000F0914604E217F307A0F42E1B3F0B2817F6
:1026C000390778F0AC014E5F5F4F2417350748F0AB
:1026D0004E0F5F1F5093460440934504819391939E
:1026E00002C0E0E0F0E0CF01DF91CF9108950F93B9
:1026F0001F93CF93DF93009709F48CC0FC013297AE
:1027000013821282009147041091480401151105AB
:1027100081F420813181820F931F209145043091F3
:1027200046042817390779F5F0934604E0934504E9
:1027300071C0D80140E050E0AE17BF0750F41296C8
:102740002D913C911397AD012115310509F1D90166
:10275000F3CF9D01DA013383228360817181860F7B
:10276000971F8217930769F4EC0128813981260F9E
:10277000371F2E5F3F4F318320838A819B81938354
:102780008283452B29F4F0934804E093470442C028
:102790001396FC93EE931297ED01499159919E0186
:1027A000240F351FE217F30771F480819181840FA4
:1027B000951F029611969C938E9382819381139616
:1027C0009C938E931297E0E0F0E0D80112968D91E1
:1027D0009C911397009719F0F8018C01F6CF8D9119
:1027E0009C9198012E5F3F4F820F931F20914504CB
:1027F000309146042817390769F4309729F410926C
:1028000048041092470402C01382128210934604B7
:1028100000934504DF91CF911F910F910895A0E09F
:10282000B0E0E5E1F4E10C945616EC01009721F4D8
:10283000CB010E94E212B8C0FC01E60FF71F9C0119
:1028400022503109E217F30708F4ACC0D9010D9109
:102850001C91119706171707B0F00530110508F401
:102860009FC0C80104978617970708F499C00250C3
:102870001109061B170B019311936D937C93CF01E4
:102880000E9477138DC05B01A01AB10A4C01800E23
:10289000911EA0914704B091480440E050E0E12C23
:1028A000F12C109709F44AC0A815B905D1F56D901F
:1028B0007C901197630182E0C80ED11CCA14DB041E
:1028C00080F1A3014A195B096A0182E0C80ED11C9C
:1028D0001296BC9012971396AC91B5E0CB16D1042A
:1028E00040F0B282A38351834083D9016D937C93DE
:1028F0000AC00E5F1F4FC301800F911FF901918322
:102900008083EB2DFA2FE114F10431F0D7011396F7
:10291000FC93EE93129744C0F0934804E09347046D
:102920003FC08D919C9111974817590708F4AC014D
:102930007D0112960D90BC91A02DB3CF80914504DE
:102940009091460488159905E1F446175707C8F495
:102950008091020190910301009741F48DB79EB7D9
:102960004091060150910701841B950BE817F90768
:10297000C8F4F0934604E0934504F9017183608341
:102980000FC0CB010E94E2127C01009759F0A80110
:10299000BE010E94DE14CE010E947713C70104C05D
:1029A000CE0102C080E090E0CDB7DEB7EEE00C943F
:1029B000721681E090E0F8940C948916FB01DC011A
:1029C00002C001900D9241505040D8F70895FB018C
:1029D000DC0101900D920020E1F708954532510588
:1029E00020F4423010F00C94F914FB011082CB015A
:1029F0000895BB274A3031F4992322F4BDE2909523
:102A000081959F4F0C940515BB27FB015527AA27DD
:102A1000880F991FAA1FA41710F0A41B839550516B
:102A2000B9F7A05DAA3308F0A95DA193009779F7E3
:102A3000B111B1931192CB010C941E15DC01FC0174
:102A4000672F71917723E1F7329704C07C916D93E2
:102A500070836291AE17BF07C8F308950E94701586
:102A600008F481E00895E89409C097FB3EF490953E
:102A70008095709561957F4F8F4F9F4F9923A9F057
:102A8000F92F96E9BB279395F695879577956795E6
:102A9000B795F111F8CFFAF4BB0F11F460FF1BC02A
:102AA0006F5F7F4F8F4F9F4F16C0882311F096E9BD
:102AB00011C0772321F09EE8872F762F05C066236B
:102AC00071F096E8862F70E060E02AF09A95660F24
:102AD000771F881FDAF7880F9695879597F90895DD
:102AE000990F0008550FAA0BE0E8FEEF161617061F
:102AF000E807F907C0F012161306E407F50798F087
:102B0000621B730B840B950B39F40A2661F0232B9F
:102B1000242B252B21F408950A2609F4A140A6951B
:102B20008FEF811D811D08950E94A7150C94181622
:102B30000E940A1638F00E94111620F0952311F019
:102B40000C9401160C94071611240C944C160E9438
:102B5000291670F3959FC1F3950F50E0551F629FA2
:102B6000F001729FBB27F00DB11D639FAA27F00DE6
:102B7000B11DAA1F649F6627B00DA11D661F829F0D
:102B80002227B00DA11D621F739FB00DA11D621FF2
:102B9000839FA00D611D221F749F3327A00D611D0F
:102BA000231F849F600D211D822F762F6A2F1124F1
:102BB0009F5750409AF0F1F088234AF0EE0FFF1F24
:102BC000BB1F661F771F881F91505040A9F79E3F7B
:102BD000510580F00C9401160C944C165F3FE4F301
:102BE000983ED4F3869577956795B795F795E795D1
:102BF0009F5FC1F7FE2B880F911D9695879597F9DA
:102C0000089597F99F6780E870E060E008959FEF6E
:102C100080EC089500240A94161617061806090673
:102C2000089500240A941216130614060506089542
:102C3000092E0394000C11F4882352F0BB0F40F4CA
:102C4000BF2B11F460FF04C06F5F7F4F8F4F9F4F0A
:102C5000089557FD9058440F551F59F05F3F71F08C
:102C60004795880F97FB991F61F09F3F79F08795F3
:102C70000895121613061406551FF2CF4695F1DF7C
:102C800008C0161617061806991FF1CF869571050C
:102C9000610508940895E894BB2766277727CB0140
:102CA00097F908952F923F924F925F926F927F9281
:102CB0008F929F92AF92BF92CF92DF92EF92FF924C
:102CC0000F931F93CF93DF93CDB7DEB7CA1BDB0BF8
:102CD0000FB6F894DEBF0FBECDBF09942A8839889D
:102CE00048885F846E847D848C849B84AA84B984A4
:102CF000C884DF80EE80FD800C811B81AA81B981B0
:102D0000CE0FD11D0FB6F894DEBF0FBECDBFED01C3
:102D1000089510E0C2E6D0E004C0FE010E942F1228
:0C2D20002196C336D107C9F7F894FFCF05
:102D2C0001000000490480000000000012018E0028
:102D3C00DB00B900CD005901000000003202020294
:102D4C00FA01EB01DD01DC01000000009B028E00AA
:102D5C00EF02070382029A020000000075028E0047
:102D6C00330761029E037D035765617468657220A9
:102D7C0053746174696F6E0057656C636F6D652178
:102D8C0000476F6F646E69676874206D6F6F6E219A
:102D9C00004C6F6F702053746172746564004F4BFC
:102DAC002C0900436865636B73756D206572726FD7
:102DBC00722C090054696D65206F757420657272F0
:102DCC006F722C0900436F6E6E65637420657272AE
:102DDC006F722C090041636B204C6F772065727207
:102DEC006F722C090041636B20486967682065721B
:102DFC00726F722C09004C696768740054656D70B1
:102E0C00284C4D3335290054656D70284448543294
:102E1C0032290048756D6964697479000D0A005790
:102E2C006561746865722053746174696F6E2020DB
:102E3C00004C6967687420200054656D70284C4DF7
:102E4C0033352920200054656D70284448543232A3
:102E5C002920200048756D6964697479202000452B
:102E6C0072726F7221006E616E00696E66006F7611
:042E7C0066002E00BE
:00000001FF
